:020000040800F2
:1000000000070020890100084F090008A108000826
:100010004D0900084D050008B51500080000000056
:10002000000000000000000000000000D3100008E5
:100030005906000800000000650E0008891100083C
:10004000A3010008A3010008A3010008A301000800
:10005000A3010008A3010008A3010008BD060008D1
:10006000A3010008A3010008A3010008A3010008E0
:10007000A3010008A3010008A3010008A3010008D0
:10008000A3010008A3010008A3010008A3010008C0
:10009000A3010008A3010008A3010008A3010008B0
:1000A000A3010008A3010008A3010008A3010008A0
:1000B000A3010008E911000800000000A3010008E6
:1000C000A30100080000000000000000A3010008D8
:1000D00000000000A3010008A301000800000000C8
:1000E000A3010008A3010008A301000800F002F822
:1000F00000F03AF80AA090E8000C82448344AAF188
:100100000107DA4501D100F02FF8AFF2090EBAE885
:100110000F0013F0010F18BFFB1A43F0010318473B
:10012000DC200000FC200000103A24BF78C878C111
:10013000FAD8520724BF30C830C144BF04680C60ED
:10014000704700000023002400250026103A28BF35
:1001500078C1FBD8520728BF30C148BF0B60704739
:100160001FB51FBD10B510BD00F031F81146FFF7E7
:10017000F7FF01F057FA00F04FF803B4FFF7F2FF72
:1001800003BC00F057F800000948804709480047C1
:10019000FEE7FEE7FEE7FEE7FEE7FEE7FEE7FEE737
:1001A000FEE7FEE704480549054A064B7047000094
:1001B0008D110008ED00000800010020000700205C
:1001C0000003002000030020704770477047754609
:1001D00000F02CF8AE4605006946534620F00700B3
:1001E000854618B020B5FFF7DDFFBDE820404FF091
:1001F00000064FF000074FF000084FF0000B21F011
:100200000701AC46ACE8C009ACE8C009ACE8C009DD
:10021000ACE8C0098D46704710B50446AFF30080C6
:100220002046BDE81040FFF7A8BF00000048704717
:10023000A000002001491820ABBEFEE72600020006
:100240007047000070B5124E304600F041F90024AE
:100250004FF47A75304600F0D6F838B1AC4201D18F
:10026000012070BD641CA4B2AC42F3D3304600F050
:1002700040F90024304600F0BFF838B1AC4201D15B
:10028000012070BD641CA4B2AC42F3D3002070BD49
:100290000024014010B586B000F098F80121480212
:1002A00000F008FE4FF4004000F0DEFD184C06237D
:1002B00001220021204600F0D1F80623022201216C
:1002C000204600F0CBF8062303220221204600F04E
:1002D000C5F8062304220321204600F0BFF80021C0
:1002E00001914FF460220392049101218DF80910CD
:1002F0008DF8081004218DF8141001A9204600F093
:1003000089F80121204600F017F806B010BD000062
:100310000024014010B500F059F8FFF7BBFF00F0D2
:1003200017F8BDE81040FFF78DBF0000012101481C
:1003300000F0D3B800240140002904D0816841F0C6
:10034000010181607047816821F00101816070477F
:1003500010B58CB00121084600F090FD12480190C4
:100360008015079000200590104902914FF480619C
:100370000891802106910390282104910B90202060
:100380000990C0010A900A4C01A9204600F047F9E3
:10039000054801214C3800F00DF80121204600F0FD
:1003A00031F90CB010BD00004C24014024000020A5
:1003B00008000240002904D0816841F48071816006
:1003C0007047816821F480718160704708B5012110
:1003D000042000F06FFD00208DF803000F20ADF821
:1003E000000003208DF802006946024800F0F4F98D
:1003F00008BD000000080140014600208968490747
:1004000000D501207047014600208968090700D502
:100410000120704710B542680E4B1A400C790B68EA
:1004200042EA04221343436082680B4B1A40D1E92D
:10043000024323434C7942EA440213438360C26A75
:1004400022F47002097C491EC9B242EA0151C1621C
:1004500010BD0000FFFEF0FFFDF7F1FF70B50726AD
:1004600009290AD9C568A1F10A0404EB4404A6408D
:10047000B543A3401D43C56007E0056901EB410496
:10048000A640B543A3401D4305611F23072A09D297
:10049000446B521E02EB820293409C4391400C43FA
:1004A000446370BD0D2A09D2046BD21F02EB820295
:1004B00093409C4391400C43046370BDC46A0D3A61
:1004C00002EB820293409C4391400C43C46270BD96
:1004D000816841F0080181607047002904D081687B
:1004E00041F4A00181607047816821F4A00181601E
:1004F0007047816841F004018160704738B501217F
:10050000082000F0D7FC10208DF803004402ADF85D
:10051000004003208DF80200044D6946284600F093
:100520005BF92146284600F0B3F938BD000C0140C4
:10053000054A4FF40051002802D0104600F0A8B937
:10054000104600F0A3B90000000C0140FEE70000D7
:1005500070B5104E042233460A210F4801F02BF8E3
:100560000E4C20800C4D334604220A21A81C01F0B9
:1005700022F86080334604220A21281D01F01BF86E
:10058000A080334604220A21A81D01F014F8E0805F
:1005900070BD00006666663F240000201800002041
:1005A00070B500F01BFE144C012803D10020207010
:1005B00000F064F800F012FE104D38B96888B0F50C
:1005C000C87F03D80120207000F058F820780C4C28
:1005D000012801D028B107E0688800F0A3FB208043
:1005E00002E04FF448702080231DE988A888A21CEF
:1005F000BDE8704000F0B6BB2100002018000020CC
:1006000074000020002904D0016841F0010101605C
:10061000704701684FF6FE7211400160704730B5B7
:10062000026847F6F0739A430C6A8B682343D1E95A
:1006300004452C4323438C692343CC6923434C6AF0
:1006400023438C6A234313430360CA6842600A68E9
:1006500082604968C16030BD704700EBC000C100D6
:100660004FF0E020416100218161052101610169B4
:10067000C903FCD50421016170470000064B4FF40B
:100680000041002803D00022184600F003B90122DF
:10069000184600F0FFB80000000C0140064B4FF474
:1006A0008041002803D00022184600F0F3B8012250
:1006B000184600F0EFB80000000C014070B50220B1
:1006C00000F036F800F032FA04462146272000F008
:1006D000ADFA1549FF2C06D02CB1600605D50125D1
:1006E0000120087008E0002506E0A00601D50225DB
:1006F00002E0E00600D503254DB1012D0AD0022D00
:100700000DD0032D05D1BDE8704000F057BA082088
:10071000087070BDBDE87040044800F01DBABDE827
:10072000704000F067BA0000200000207400002034
:1007300001490860704700001404014030B51B4AAD
:1007400083790168002B2AD013688B431360111D35
:100750000B680468A3430B60017911440B680468BB
:1007600023430B60114C08342168036899432160CE
:10077000231D19680568A94319604179102905D01E
:1007800011440A68006802430A6030BD21680268AB
:1007900011432160196800680143196030BD007978
:1007A000104402688A43026030BD0000000401402A
:1007B00010B58A07120F0F23934021F00304054957
:1007C00021448C689C438C608B68904003438B6011
:1007D00010BD0000000001402DE9F0410022CC785E
:1007E00004F00F03E40601D58C7823430C784FF016
:1007F0000F0714F0FF0F4FF0010C1CD005680CFA26
:1008000002F40E882640A64211D1960007FA06F897
:1008100025EA080503FA06F848EA0505CE78282EE9
:1008200002D0482E02D002E0446100E00461521C74
:10083000082AE4D305600A88FF2A1ED945680022E9
:1008400002F108060CFA06F40E882640A64210D1E2
:10085000960007FA06F825EA080503FA06F848EABA
:100860000505CE78282E00D14461CE78482E00D1DF
:100870000461521C082AE3D34560BDE8F0810246BA
:10088000002092680A4200D0012070474161704701
:1008900001617047002A01D00161704741617047D2
:1008A000FEE710B54FF4A06000F032FA01210220FB
:1008B00000F0D8F80121BDE81040084600F012BD54
:1008C00008B50121082000F0F5FA48208DF8030052
:1008D0000420ADF8000003208DF8020069460248AC
:1008E000FFF77AFF08BD0000000C0140F8B50121B8
:1008F000102000F0DFFA0121082000F0DBFA1024BC
:100900008DF803406602ADF8006003258DF80250B3
:100910000C4F69463846FFF75FFF8DF80340AC0384
:10092000ADF800408DF80250074D69462846FFF7A4
:1009300053FF31463846FFF7A9FF21462846FFF707
:10094000A7FFF8BD00100140000C0140FEE7704712
:10095000F8B50121042000F0ADFA0121082000F0D3
:10096000A9FA10248DF803402001ADF800000320FF
:100970008DF80200114D69462846FFF72DFF4821EA
:100980008DF803100221ADF800100D4E6946304677
:10099000FFF722FF8DF803400121ADF800106946F2
:1009A0003046FFF719FF012210212846FFF772FF9A
:1009B000012211463046FFF76DFFF8BD00080140E7
:1009C000000C014010B5FFF7C3FF00F0AFF801467F
:1009D000272000F02BF9214C002201212046FFF7AF
:1009E00059FF0021252000F021F905221C49302063
:1009F00000F038F91A490522491D2A2000F032F981
:100A00000F21202000F012F90121212000F00EF921
:100A10002021312000F00AF90121222000F006F9FE
:100A20001A21242000F002F90721262000F0FEF808
:100A3000FF21E22000F0FAF8FF21E12000F0F6F8B3
:100A4000012211462046FFF725FF052000F030F86F
:100A500008B1012010BD002010BD0000000C0140B5
:100A6000F2210008FEB504460D460121084600F0BB
:100A700021FA01210846FFF79BFE0222019201267E
:100A80008DF80A6000228DF808200C228DF80920CC
:100A900001A8FFF753FE07228DF800208DF80360B0
:100AA0008DF801408DF80250684600F0FFF8FEBD59
:100AB00070B506460A4D4FF4807400222146284640
:100AC000FFF7E8FE304600F0B7FAFF2000F0B4FA76
:100AD0000646012221462846FFF7DCFE304670BD5F
:100AE000000801402DE9F04104460D461646DFF8A6
:100AF00038804FF48077002239464046FFF7CAFE1F
:100B0000204600F099FA002405E0FF2000F094FA56
:100B10002855641CE4B2B442F7D339464046BDE8D8
:100B2000F0410122FFF7B6BE0008014070B5094D43
:100B30004FF48074002221462846FFF7ABFEFF20C9
:100B400000F07AFA0646012221462846FFF7A2FE67
:100B5000304670BD0008014010B5074C02222270DB
:100B6000014620226120FFF7BDFFFF21E22000F0B7
:100B70005DF80320207010BD2000002070B50D4CE2
:100B80000422227001462022A02000F06BF80A4DBA
:100B9000002201212846FFF77DFE0E21202000F0D3
:100BA00045F8012211462846FFF774FE0520207003
:100BB00070BD000020000020000C014010B5FF2196
:100BC000E12000F033F8094C002201212046FFF714
:100BD00061FE0F21202000F029F801221146204655
:100BE000FFF758FE02490720087010BD000C0140B5
:100BF0002000002010B5FF21E12000F017F8094C7B
:100C0000002201212046FFF745FE0F21202000F0A1
:100C10000DF8012211462046FFF73CFE024906204E
:100C2000087010BD000C0140200000202DE9F041AB
:100C300007460E460A4D4FF480740022214628468E
:100C4000FFF728FE384600F0F7F9304600F0F4F9D7
:100C500021462846BDE8F0410122FFF71BBE0000F7
:100C6000000801402DE9F04104460D461646DFF824
:100C700038804FF48077002239464046FFF70AFE5D
:100C8000204600F0D9F9002404E0285D00F0D4F9F2
:100C9000641CE4B2B442F8D339464046BDE8F041A2
:100CA0000122FFF7F7BD00000008014070B50F23D7
:100CB000C27801260178002A1ED0144A126802F474
:100CC000E062C2F5E062120AC2F10404D340457842
:100CD000A54082781A402A43120101F1E02181F8EF
:100CE0000024007800F01F018E404009800000F1D0
:100CF000E020C0F8006170BD01F01F008640480987
:100D0000800000F1E020C0F8806170BD0CED00E0D3
:100D10000249084302490860704700000000FA05D4
:100D20000CED00E010B5B0F5C87F02D84FF4487064
:100D300010BDA0F5C87080B201F0FCF8064901F0C2
:100D400017F8064901F00AF9054900F0AFFF01F074
:100D5000D1F880B210BD0000008054450000AF44BF
:100D6000000048442DE9F047064690469946A1F513
:100D7000967188B201F0DEF8374900F0F9FF374F7D
:100D8000394601F0EBF801F0B5F885B284B240F6CF
:100D90006600DFF8CCA086421DD3A6F66606B0B288
:100DA00001F0C8F8514600F0E3FF394601F0D6F8EB
:100DB0000446284601F0BEF80646214601F0A4F993
:100DC00001F098F885B22146304600F06FFF01F03F
:100DD00091F884B224E040F60200864220D8A6F5BD
:100DE0009676B0B201F0A6F8514600F0C1FF4FF080
:100DF0007E5101F07FF9394601F0B0F804462846EB
:100E000001F098F80646214600F050FF01F072F814
:100E100085B22146304601F077F901F06BF884B2D3
:100E200044F620618D4200D900254FF4FA608542D6
:100E300000D905468C4200D90024844200D90446DA
:100E4000A5F6C415684204F5FA74A8F80000A9F8DC
:100E50000040BDE8F087000000C05A450000FA4499
:100E600000C0DA4470470000034A516821F4404151
:100E7000014351607047000000100240054A0029FC
:100E800003D05169014351617047516981435161F8
:100E90007047000000100240054A002903D0D169C4
:100EA0000143D1617047D1698143D161704700002E
:100EB00000100240054A002903D091690143916165
:100EC00070479169814391617047000000100240B2
:100ED00010B5264A516801F00C01254B002927D096
:100EE000042927D0082927D00360516801F0F001B8
:100EF0000909204B5C5C0168E1404160546804F4DE
:100F0000E064240A1C5D21FA04F48460546804F44B
:100F10006054E40A1B5DD940C160526802F440424B
:100F2000920B144B1B1F9A5CB1FBF2F1016110BDD7
:100F30000360DAE70360D8E7516801F47011536881
:100F400003F48033022404EB914133B153689B03D3
:100F500007D5094B59430160C7E7074B5943016067
:100F6000C3E7034B59430160BFE700000010024094
:100F700000127A000400002000093D00064B4FF4E7
:100F80000051002803D000221846FFF783BC01223D
:100F90001846FFF77FBC00000010014038B5012162
:100FA0000420FFF787FF18208DF80300A020ADF87C
:100FB000000003208DF80200074C69462046FFF729
:100FC0000BFC04218DF803104021ADF80010694698
:100FD0002046FFF701FC38BD0008014010B586B07F
:100FE000FFF7DCFF01210803FFF764FF4FF4827075
:100FF000ADF806000020ADF80400ADF80800ADF82B
:1010000012002821ADF81010ADF80A00ADF80C0060
:101010004FF40070ADF80E000720ADF81400054C39
:1010200001A9204600F039F80121204600F01EF801
:1010300006B010BD0030014070B505460A4C0221D3
:10104000204600F01FF80128F9D12946204600F07B
:1010500022F80121204600F015F80128F9D1204698
:1010600000F017F8C0B270BD00300140002904D074
:10107000018841F0400101807047018821F0400162
:10108000018070470246002012890A4200D00120E8
:101090007047808970478181704730B5028802F4BB
:1010A00041530A884C88CD8822438C882C432243A4
:1010B0000C8922434C8922438C892243CC892243C8
:1010C0001A430280828B22F400628283098A0182A1
:1010D00030BD7047AFF300800CB500220192009242
:1010E0002748016841F4803101604FF4A063016832
:1010F00001F4003100910199491C0191009911B945
:1011000001999942F3D10168890302D50121009127
:1011100000E000920099012930D11A490A6842F092
:1011200010020A600A6822F003020A600A6842F0AC
:1011300002020A604168416041684160416841F4CF
:1011400080614160416821F47C114160416841F453
:10115000E8114160016841F0807101600168890116
:10116000FCD5416821F003014160416841F0020172
:1011700041604168C1F381010229FAD10CBD000030
:1011800000100240002002407047000010B50F48D8
:10119000016841F00101016041680D4A1140416060
:1011A00001680C4A11400160016821F4802101604E
:1011B000416821F4FE0141604FF41F018160FFF797
:1011C00089FF05494FF00060086010BD0010024023
:1011D0000000FFF8FFFFF6FE08ED00E004210148E3
:1011E000FFF74DBB000C014070B50121294800F00C
:1011F00097F82948294C007858B1012813D00228C3
:1012000010D10120FFF74AFABDE870400120FFF736
:101210008FB90020FFF742FA002525700120FFF763
:1012200087F9657070BD2078401CC0B20B21B0FBFF
:10123000F1F201FB1200207010B1052804D006E085
:101240000120FFF72BFA02E00020FFF727FA607871
:1012500030B1052808D00A280AD00F280CD00EE09B
:101260000020FFF765F90AE00120FFF761F906E0C9
:101270000020FFF75DF902E00120FFF759F96078DF
:10128000401CC0B21F21B0FBF1F201FB12006070E4
:1012900070BD000000040040140000201500002074
:1012A0003EB501210220FFF7F7FD0D4C204600F06E
:1012B00050F80021ADF80610ADF80210C722ADF8C5
:1012C000042041F61F42ADF800208DF80810694651
:1012D000204600F043F80121204600F024F83EBDEE
:1012E00000040040F8B504460D460C4E012130467E
:1012F00000F016F801221146304600F020F81D20BB
:101300008DF8000001208DF803008DF801408DF864
:1013100002506846FFF7CAFCF8BD00000004004018
:10132000C94301827047002904D0018841F00101BE
:1013300001807047018821F0010101807047002A77
:1013400003D082890A438281704782898A438281DD
:101350007047018921F007010181704730B502888B
:101360001B4C1C4DA0420DD0A8420BD0B0F1804FB9
:1013700008D0194B984205D0184B984202D0184B10
:10138000984203D122F070034A881A43154B9842C1
:1013900006D0154B984203D022F44073CA881A43F2
:1013A00002808A8882850A880285A0420AD0A842E3
:1013B00008D00E4A904205D00D4A904202D00D4A04
:1013C000904201D1097A01860121818230BD00005D
:1013D000002C01400034014000040040000800409F
:1013E000000C00400010004000140040004001408C
:1013F000004401400048014038B501210420FFF7B6
:1014000059FD18208DF803004FF40070ADF800006E
:1014100003208DF80200084C69462046FFF7DCF9EE
:1014200048218DF803102115ADF8001069462046BB
:10143000FFF7D2F938BD0000000801401FB5FFF7E3
:10144000DBFF01218803FFF735FD4FF4E130009009
:101450000020ADF80C000C21ADF80A10ADF8080022
:10146000ADF80600ADF80400044C6946204600F0D3
:101470003FF80121204600F028F81FBD0038014048
:1014800010B5064C0146204600F090F88021204619
:1014900000F027F80028F9D010BD00000038014006
:1014A0002DE9F0410F4615461E46FFF7E9FF0024DF
:1014B00004E0285DFFF7E4FF641CE4B2B442F8D313
:1014C0003846BDE8F041FFF7DBBF002904D0818931
:1014D00041F4005181817047818921F4005181815B
:1014E00070470246002012880A4200D0012070474F
:1014F00030B585B004460D46208A4CF6FF71084091
:10150000E98801432182A0894EF6F3110840A98899
:101510002A8911436A8902431143A181A08A4FF6A7
:10152000FF410840A9890143A1826846FFF7D0FC2A
:101530001D48844201D1039800E00298A189090462
:1015400008D500EBC00101EB001029684900B0FB91
:10155000F1F007E000EBC00101EB00102968890001
:10156000B0FBF1F06422B0FBF2F109010B096FF05E
:1015700018056B4300EB8300A3891D044FF0320371
:1015800007D503EBC000B0FBF2F000F00700084302
:1015900006E003EB0010B0FBF2F000F00F00084390
:1015A000208105B030BD000000380140C1F30801C2
:1015B00081807047FEE72DE9F0478046894617464F
:1015C0009A46781E38F8100000F049F904460D4696
:1015D00001261EE051464FF07E5000F095FD00F0D0
:1015E00039FB22462B4600F04DF9044606FB07F076
:1015F0000D4638F8100000F09DFC514600F0AEFC9E
:1016000000F028FB22462B4600F054F804460D4615
:10161000761C4E45DEDB2046294600F0F3F880B20A
:10162000BDE8F087FFF762F90020FFF7A7FCFFF79E
:1016300047F9FEF763FFFFF701FFFFF731FEFEF703
:1016400069FEFEF773FEFFF7C9FCFFF7BBF9FFF772
:1016500028F9154C154DFEF77BFFFEF7A1FF02E0C0
:101660000120FEF7FAFF20780528F9D02078062817
:1016700004D0072805D0082806D007E000202870ED
:1016800004E00120287001E0022028700623084AA7
:10169000CD21AB20FFF704FF0548FFF76FFA0448A0
:1016A0008168491C8160D6E72000002014000020DA
:1016B0007400002010B591EA030F48BF83F0004387
:1016C00000F1E681841A71EB030C05D2121943EB89
:1016D0000C03001B61EB0C01DFF824E14FEA11540D
:1016E000A4EB135C1EEA430F18BF9EEA445F73D05D
:1016F00023EA0E03DCF1200E21EA045143F48013A7
:1017000032D322FA0CFE10EB0E0023FA0CFE41EB52
:101710000E01CCF1200E03FA0EFE10EB0E0051F17B
:101720000001B1F5801FCCF1200E32D201EB045143
:1017300012FA0EF2BDE8104058BF7047401C38BF87
:101740005FEA420218BF7047002814BF20F0010072
:1017500041F100014FEA410313F5001F38BF704704
:10176000A1F1C04100F086B9012A43EB0302ACF1BC
:10177000200CDCF11F0E32BF4FF0000E23FA0CF3E9
:1017800010EB030041EB0451B4EB115FD0D0A1EB9F
:10179000045101F5801149085FEA300001EB045162
:1017A0000ED350F1000038BF12FA0EFE08D1BDE88A
:1017B0001040C9E7401C38BF5FEA4202CAD1C3E704
:1017C000BDE810404FEA410313F5001F38BF7047D2
:1017D000A1F1C04100F04EB99EEA445F08D011EA81
:1017E0005E0FBDE8104004BF01F0004100207047CB
:1017F000BDE8104070B500F0EFF800BF64FBBE3EDE
:101800000000E0FF4FEA1153A3F58063D3F11E03FC
:10181000A8BFD3F1200C08DB4FF0004242EAC122FE
:1018200052EA505232FA03F0704709420BD4102B9F
:10183000C4BF0020704703F5787CBCF1FF3F05D0A2
:101840004FF0FF3070474FF00000704770B500F068
:10185000C3F800BF4992248000207047F0E7B0FA37
:1018600080F310FA03F10AD0C3F11D0303F580637E
:101870004FEA41504FEA035202EBD12170474FF03B
:1018800000007047DFF848C170B51CEA111E1EBF8A
:101890001CEA13159EEA0C0F95EA0C0F00F06F80FE
:1018A00081EA030423EA4C134EEAD47E21EA4C1168
:1018B00041F4801143F48013AE44A1FB024CA0FB21
:1018C0000365AEF17F7E361955EB0C05A1FB034C89
:1018D0004CF10003A0FB021C16EB0C06654153F112
:1018E0000003094218BF46F0010613F4007F0BD134
:1018F0004FEA03314FEA0530340341EA155140EA1B
:1019000016506FF003020AE04FEAC3214FEAC520E8
:10191000F40241EA555140EA56506FF0020202EBE0
:101920002E4201EB025585EACE710AD05FEA440CE3
:1019300018BF24F0004450F1000041F1000120EAFA
:10194000D47040F2FE7C624500D270BDA84214BF44
:101950004FF080444FF04044002E08BF0024BEF1F9
:10196000806FA8BFA1F1C041BDE8704080F28280C5
:101970004FF0000001F1C04101F0004170479EEAC4
:101980000C0F0CEA131518BF95EA0C0F06D04FF098
:10199000000081EA030E0EF0004170BD00F01CF85B
:1019A0008900013E00F007B800F009B84FEA430C87
:1019B0005FEA5C5C08D081EA030100F05BB84FEAA3
:1019C000410C5FEA5C5CF6D14FF0000001497047C2
:1019D0000000FF070000F87F0EF1020E2EF0030E4C
:1019E0005EF8046B364205D4012A43EB030515F576
:1019F000001F12D8012841EB010C1CF5001F0CD868
:101A00000ED14FEAD17C15F5001F0CEB4C0C0CF1FC
:101A1000020C08BF4CEBD37C04E04FF0080C01E053
:101A20004FEAD37C0CEB4C0526FA05F606F00706C8
:101A3000B6F1040C06D20EEB860CBDE870404CF0FB
:101A4000010C6047DFE80CF0090B02024FF0004187
:101A50004FF00000A1F5002170BD19461046012885
:101A600051EB010418BFD4F5001484BF002001F02D
:101A7000004170BD0808A0F500114FEA3101704720
:101A800010B591EA030F48BF83F000433FF51AAE4B
:101A9000841A71EB030C07D212198CF0004C43EB43
:101AA0000C03001B61EB0C01DFF8A4E14FEA1154B9
:101AB000A4EB135C1EEA430F18BF9EEA445F00F0DC
:101AC000B08023EA6E03524221EA0451C3EB6E0355
:101AD00038BF5B1EDCF1200E25D322FA0CFE10EB82
:101AE0000E0043FA0CFE41EB0E01CCF1200E03FA7E
:101AF0000EFE10EB0E0051F10001CCF1200E29D4A6
:101B000012FA0EF201EB0451BDE8104058BF7047C5
:101B1000401C1CBFB2F1004F704700280CBF491C8D
:101B200020F00100704712EB020E43EB030218BFD6
:101B30004FF0010E4EEA4202ACF1200CDCF11E0E19
:101B400054D943FA0CFE10EB0E0051F1FF31CCF1E9
:101B50001E0ED5D50EF1010E12FA0EFE404141EBDC
:101B6000010101EB445C5FEA5C5C10D910EBDE70B4
:101B700001EB045138BFBEF1004FBDE8104018BF63
:101B8000704700280CBF491C20F00100704730D27C
:101B90004FEAD42C11F5001124F400641BD0B1FAE3
:101BA00081F20B3AA41AA41ED2F12003914030FA1C
:101BB00003F31943904001EBCC71002C01EB04516D
:101BC000BDE81040A8BF704701F1C0414FF00000D0
:101BD00001F000417047B0FA80F310FA03F100D130
:101BE00010BDE41A173C4805C90AE4E701EB0451AB
:101BF00010BD491001EB0451BDE810404FEA300020
:101C000002E04FF0000170474A0008BF0042F8D0E0
:101C1000B2F5001F28BF704701F000414FF00000EF
:101C200070479EEA445F07D011EA5E0FBDE810409E
:101C300004BF002100207047BDE8104070B5FFF7D9
:101C4000CBFE00BF40DFF63E83F0004110467047F8
:101C50000000E0FF43004FEAD30C4FEA3C0C434046
:101C60001FBF40070CF1605113F0FE4F70471CF08E
:101C7000006F03D100200CF0004170470CF00043CE
:101C800043EA507010B540EACC0000F0E8F900BF1C
:101C9000000000924FEA0001FFF7ECBE4FF0004158
:101CA0004FF00000A1F500217047000090EA010FFD
:101CB00048BF81F0004100F12E82421A3CBF801AD9
:101CC00089184FEAD0524FF07F4C1CEA410FA2EB2B
:101CD000D15318BF9CEA026F00F03B804FF0004CDC
:101CE0004CEA00204CEA012121FA03FC10EB0C0C19
:101CF0001ED202F1FF325FEA1C2040EBC25038BF17
:101D000070471CF07F0F4FEA400C18BFBCF17F4FAB
:101D100038BF7047C3F12003994008BF20F001008D
:101D2000BCF17F4F38BF7047A0F1C04000F0DDB973
:101D30004FEA3C00000A40EBC25028BF1CF0FF0FE6
:101D40004FEA400CE6D018BFBCF17F4F38BF704758
:101D5000EAE79CEA026F05D010EA5C0F08BF00F0CA
:101D60000040704710B500F07AF900BF64FBBE3E3A
:101D70004FF47F0C1CEAD0121EBF1CEAD11392EA6A
:101D80000C0F93EA0C0F00F0858090EA010F48BF1A
:101D900042F4807240F4000C41F400002CF07F41CA
:101DA00020F07F4000B58142A2EB03020FF2081C35
:101DB000ACEB504EC0F100009EF800E04FEA4E0E32
:101DC00000FB0EFC38BF49004FEA2C1C02F5FA025A
:101DD0000CFB0EF34FEACE1E4FEA112C4FEAC12145
:101DE0000EEB635E42EB22420EFB0CFC4FEA1C53EF
:101DF00000FB03114FEA112C4FEA01310EFB0CFCE2
:101E00004FEADC4C00FB0C11C14228BF09184CEB17
:101E100003335DF804EB10EB410143EBC250B2F524
:101E20007C0F38BF704729D512F0F00F1CBF00F1AE
:101E3000C04000F00040704700818283848586871F
:101E400088898B8C8D8E8F919293959697999A9C79
:101E50009D9FA0A2A3A5A7A8AAACAEB0B2B3B5B7E8
:101E6000B9BCBEC0C2C5C7C9CCCED1D4D7D9DCDFBE
:101E7000E2E6E9ECF0F3F7FAFE0000004FEA400C6E
:101E80000CF1807CBCF17E4F28BF7047B0F1C040A0
:101E900000F02BB990EA010F0CEAD11348BF42F4CD
:101EA0008072624538BF634507D213F47F0F16D0A6
:101EB00080EA010000F00040704710B500F0CFF854
:101EC000097EFC3E00F005B880EA010000F0004009
:101ED000704780EA010000F0004000F006B912F4FB
:101EE0007F0F04BF0248704780EA010000F0FDB890
:101EF0000000C07FC10DD1F19E0206DB4FEA002336
:101F000043F0004323FA02F07047004207D54FEA3E
:101F10004001B1F1FE4F02D24FF00000704710B502
:101F200000F09DF849922480002070476FEA20005D
:101F300070470000B0FA80F310FA03F2C3F19D037A
:101F40000AD0D90501EB1220530638BF704700F1C3
:101F5000010008BF20F00100704700004FF47F0C23
:101F60001CEAD0121EBF1CEAD11392EA0C0F93EAAE
:101F70000C0F00F0478090EA010F48BF42F48072D6
:101F80004FF0004C4CEA00204CEA012102EB030226
:101F9000A0FB0113A2F50002002918BF43F00103C2
:101FA0005B0028BF4FEA330342EB22425FEA132C67
:101FB0004CEBC2502EBFBCEB436FB2F57C0F7047A9
:101FC0004FEA036CBCF1004F08BF20F00100B2F5EE
:101FD0007C0F38BF70470BD582F0FF0212F5803FAF
:101FE000C8BF704700F1C040D8BF00F00040704744
:101FF00000F5000C5FEA4C0C48BF7047B0F1C040E0
:1020000000F073B890EA010F0CEAD11348BF42F414
:102010008072624538BF634504D280EA010000F057
:102020000040704710B500F01AF800BF8900013E6B
:1020300000F007B800F009B85FEA410C5FEA1C6CD9
:1020400008D080EA010000F050B85FEA400C5FEA77
:102050001C6CF6D14FF00040A0F5800070470EF1E7
:10206000020E2EF0030E5EF8044B244204D44FEA15
:102070004102B2F17F4F11D84FEA4003B3F17F4FD5
:102080000CD80ED14FEAD07CB2F17F4F0CEB4C0C48
:102090000CF1020C08BF4CEBD17C04E04FF0080CB3
:1020A00001E04FEAD17C0CEB4C0324FA03F404F07A
:1020B0000704B4F1040C06D20EEB840CBDE810400A
:1020C0004CF0010C6047DFE80CF0070802024FF00B
:1020D0000040A0F5800010BD0846420018BFD2F1B4
:1020E000807288BF00F0004010BDFF2141EAD0504F
:1020F000C005704780F0004090EA010F7FF5DDAD2C
:1021000081F0004100F007B890EA010F48BF81F06C
:1021100000413FF5D2AD421A04D882F00042A0EB54
:10212000020011444FEAD0524FF07F4C1CEA410F9D
:10213000A2EBD15318BF9CEA026F4AD04FF0004C7B
:102140004CEA00204CEA012121FA03FCB0EB0C0C14
:102150000FD412F0FE0F36D05FEA4C001DD50012EE
:1021600040EBC25038BF70471CF03F0F18BF70479C
:102170000BE0A2F101025FEA1C2040EBC25038BF25
:1021800070471CF07F0F18BF7047C3F120039940C0
:1021900014BF401E20F00100704780084FEA122350
:1021A00008BF7047B0FA80FCA2EB0C02CCF1280CFF
:1021B00060FA0CF093EA122F04BF00EBC250704794
:1021C0004FEAC3707047130A5FEADC1008BF70471C
:1021D000F6E79CEA026F04D010EA5C0F08BF00200B
:1021E000704710B5FFF73BFF40DFF63E81F000403F
:1021F0007047F0F0F0F0F0F0F0F0F0F01C22000882
:1022000000000020240000002801000840220008EF
:1022100024000020DC060000440100080204060837
:10222000000000000102030401020304060708097C
:10223000000000000000000000000000000000009E
:04000005080000ED02
:00000001FF
