:020000040800F2
:10000000A0060020890100080F0500084F04000821
:100010000D05000843020008D10E00080000000092
:10002000000000000000000000000000FB090008C4
:100030007D0200080000000089080008350B000858
:10004000A3010008A3010008A3010008A301000800
:10005000A3010008A3010008A30100088102000811
:10006000A3010008A3010008A3010008A3010008E0
:10007000A3010008A3010008A3010008A3010008D0
:10008000A3010008A3010008A3010008A3010008C0
:10009000A3010008A3010008A3010008A3010008B0
:1000A000A3010008A3010008A3010008A3010008A0
:1000B000890B0008A301000800000000A30100084C
:1000C000A30100080000000000000000A3010008D8
:1000D00000000000A3010008A301000800000000C8
:1000E000A3010008A3010008A301000800F002F822
:1000F00000F03AF80AA090E8000C82448344AAF188
:100100000107DA4501D100F02FF8AFF2090EBAE885
:100110000F0013F0010F18BFFB1A43F0010318473B
:100120000C0E00002C0E0000103A24BF78C878C1D5
:10013000FAD8520724BF30C830C144BF04680C60ED
:10014000704700000023002400250026103A28BF35
:1001500078C1FBD8520728BF30C148BF0B60704739
:100160001FB51FBD10B510BD00F031F81146FFF7E7
:10017000F7FF00F0AFFE00F04FF803B4FFF7F2FF17
:1001800003BC00F057F800000948804709480047C1
:10019000FEE7FEE7FEE7FEE7FEE7FEE7FEE7FEE737
:1001A000FEE7FEE704480549054A064B7047000094
:1001B000390B0008ED000008A0000020A006002078
:1001C000A0020020A00200207047704770477546CB
:1001D00000F02CF8AE4605006946534620F00700B3
:1001E000854618B020B5FFF7DDFFBDE820404FF091
:1001F00000064FF000074FF000084FF0000B21F011
:100200000701AC46ACE8C009ACE8C009ACE8C009DD
:10021000ACE8C0098D46704710B50446AFF30080C6
:100220002046BDE81040FFF7A8BF00000048704717
:100230003C00002001491820ABBEFEE7260002006A
:100240007047FEE770B5084C4FF08045284621887E
:1002500000F0EAFD6188284600F0E8FDA188284604
:10026000BDE8704000F0E4BD1000002002494FF4EA
:1002700048700880704700001000002070470000A0
:1002800070B5022000F036F800F02CFA0446214642
:10029000272000F085FA1549FF2C06D02CB1600606
:1002A00005D501250120087008E0002506E0A0061C
:1002B00001D5022502E0E00600D503254DB1012D50
:1002C0000AD0022D0DD0032D05D1BDE8704000F0FD
:1002D0002FBA0820087070BDBDE87040044800F0D7
:1002E00015BABDE8704000F03FBA00000C000020D5
:1002F000100000200149086070470000140401400C
:1003000030B51B4A83790168002B2AD013688B43D0
:100310001360111D0B680468A3430B60017911443D
:100320000B68046823430B60114C08342168036890
:1003300099432160231D19680568A9431960417913
:10034000102905D011440A68006802430A6030BDD4
:10035000216802681143216019680068014319602F
:1003600030BD0079104402688A43026030BD00004D
:100370000004014010B58A07120F0F23934021F0AB
:100380000304054921448C689C438C608B68904031
:1003900003438B6010BD0000000001402DE9F041D7
:1003A0000022CC7804F00F03E40601D58C782343B7
:1003B0000C784FF00F0714F0FF0F4FF0010C1CD01A
:1003C00005680CFA02F40E882640A64211D1960068
:1003D00007FA06F825EA080503FA06F848EA0505CB
:1003E000CE78282E02D0482E02D002E0446100E0F0
:1003F0000461521C082AE4D305600A88FF2A1ED92A
:100400004568002202F108060CFA06F40E88264020
:10041000A64210D1960007FA06F825EA080503FA65
:1004200006F848EA0505CE78282E00D14461CE783A
:10043000482E00D10461521C082AE3D34560BDE870
:10044000F081002A01D00161704741617047FEE7E9
:1004500010B54FF4A06000F00DFA0121084600F03D
:10046000E1F80121BDE81040002000F0D4BB0000FD
:10047000064B4FF40051002803D000221846FFF726
:10048000E0BF01221846FFF7DCBF0000001001406A
:10049000064B002804D0012204211846FFF7D1BFE3
:1004A000002204211846FFF7CCBF0000000C0140D9
:1004B000F8B50121102000F0F7F90121082000F023
:1004C000F3F910208DF803004402ADF8004003203A
:1004D0008DF802000B4D69462846FFF75FFF0422A6
:1004E000ADF80020084E69463046FFF757FF00225E
:1004F00021462846FFF7A5FF012204213046FFF7D9
:10050000A0FFF8BD00100140000C0140FEE770475D
:10051000F8B50121042000F0C7F90121082000F0FE
:10052000C3F910248DF80340ADF8004003208DF886
:100530000200124D69462846FFF730FF48218DF82A
:1005400003100221ADF800100D4E69463046FFF74A
:1005500025FF8DF803400121ADF8001069463046B3
:10056000FFF71CFF012210212846FFF76AFF012236
:1005700011463046FFF765FFF8BD00000008014056
:10058000000C014010B5FFF7C3FF00F0ABF80146C7
:10059000272000F005F9214C002201212046FFF719
:1005A00050FF0021252000F0FBF805221C493020D7
:1005B00000F00EF91A490522491D2A2000F008F919
:1005C0000F21202000F0ECF80121212000F0E8F8B4
:1005D0002021312000F0E4F80121222000F0E0F891
:1005E0001A21242000F0DCF80721262000F0D8F89A
:1005F000FF21E22000F0D4F8FF21E12000F0D0F844
:10060000012211462046FFF71CFF052000F030F8BC
:1006100008B1012010BD002010BD0000000C0140F9
:10062000200F0008FEB504460D460121084600F0E3
:100630003BF901210846FFF79DFE022201920126A7
:100640008DF80A6000228DF808200C228DF8092010
:1006500001A8FFF755FE07228DF800208DF80360F2
:100660008DF801408DF80250684600F0D1F8FEBDCB
:1006700070B50546094C002210212046FFF7E1FE27
:10068000284600F06DF9FF2000F06AF905460122C6
:1006900010212046FFF7D5FE284670BD0008014016
:1006A0002DE9F04104460D4616460D4F002210215B
:1006B0003846FFF7C6FE204600F052F9002405E058
:1006C000FF2000F04DF92855641CE4B2B442F7D382
:1006D0003846BDE8F04101221021FFF7B2BE00000C
:1006E0000008014070B5084C002210212046FFF799
:1006F000A8FEFF2000F034F9054601221021204613
:10070000FFF79FFE284670BD0008014010B5074C5A
:1007100002222270014620226120FFF7C1FFFF2143
:10072000E22000F03DF80320207010BD0C000020F6
:1007300010B5FF21E12000F033F8094C002201211F
:100740002046FFF77EFE0F21202000F029F801222D
:1007500011462046FFF775FE02490720087010BDBC
:10076000000C01400C00002010B5FF21E12000F03A
:1007700017F8094C002201212046FFF762FE0F21E5
:10078000202000F00DF8012211462046FFF759FE07
:1007900002490620087010BD000C01400C0000202A
:1007A00070B506460D46094C002210212046FFF781
:1007B00048FE304600F0D4F8284600F0D1F8204634
:1007C000BDE8704001221021FFF73BBE0008014048
:1007D0002DE9F04104460D4616460C4F002210212B
:1007E0003846FFF72EFE204600F0BAF8002404E059
:1007F000285D00F0B5F8641CE4B2B442F8D3384682
:10080000BDE8F04101221021FFF71BBE00080140A6
:1008100070B50F23C27801260178002A1ED0144A31
:10082000126802F4E062C2F5E062120AC2F1040446
:10083000D3404578A54082781A402A43120101F13D
:10084000E02181F80024007800F01F018E4040096B
:10085000800000F1E020C0F8006170BD01F01F00D1
:1008600086404809800000F1E020C0F8806170BD3A
:100870000CED00E00249084302490860704700009F
:100880000000FA050CED00E070470000054A002961
:1008900003D0D1690143D1617047D1698143D161EE
:1008A0007047000000100240054A002903D09169FA
:1008B00001439161704791698143916170470000E4
:1008C0000010024038B501210420FFF7EDFF182089
:1008D0008DF80300A020ADF8000003208DF8020081
:1008E000074C69462046FFF759FD04218DF8031097
:1008F0004021ADF8001069462046FFF74FFD38BD96
:100900000008014010B586B0FFF7DCFF01210803A5
:10091000FFF7CAFF4FF48270ADF806000020ADF873
:100920000400ADF80800ADF812002821ADF8101051
:10093000ADF80A00ADF80C004FF40070ADF80E00F1
:100940000720ADF81400054C01A9204600F039F845
:100950000121204600F01EF806B010BD0030014015
:1009600070B505460A4C0221204600F01FF8012808
:10097000F9D12946204600F022F80121204600F056
:1009800015F80128F9D1204600F017F8C0B270BD63
:1009900000300140002904D0018841F0400101806D
:1009A0007047018821F04001018070470246002015
:1009B00012890A4200D001207047808970478181E6
:1009C000704730B5028802F441530A884C88CD88BC
:1009D00022438C882C4322430C8922434C89224396
:1009E0008C892243CC8922431A430280828B22F4D1
:1009F00000628283098A018230BD704708B50121F7
:100A00000420FFF751FF18208DF803000720ADF8F0
:100A1000000003208DF8020069460248FFF7BEFC83
:100A200008BD0000000801407FB504460D4616468B
:100A3000FFF7E4FF00F0D6F8684600F0EBF960231A
:100A4000ADF800300023ADF808300123ADF80230D6
:100A5000ADF806409C076946204600F011F9ADF854
:100A600006506946204600F04FF9ADF80660694629
:100A7000204600F08DF90121204600F0EAF87FBD04
:100A8000AFF300800CB50022019200922748016864
:100A900041F4803101604FF4A063016801F400313A
:100AA00000910199491C0191009911B9019999424C
:100AB000F3D10168890302D50121009100E0009281
:100AC0000099012930D11A490A6842F010020A60DF
:100AD0000A6822F003020A600A6842F002020A6011
:100AE0004168416041684160416841F48061416012
:100AF000416821F47C114160416841F4E811416092
:100B0000016841F08071016001688901FCD541688C
:100B100021F003014160416841F0020141604168F8
:100B2000C1F381010229FAD10CBD0000001002407E
:100B3000002002407047000010B50F48016841F0E6
:100B40000101016041680D4A1140416001680C4A91
:100B500011400160016821F480210160416821F4A5
:100B6000FE0141604FF41F018160FFF789FF0549D5
:100B70004FF00060086010BD001002400000FFF858
:100B8000FFFFF6FE08ED00E010B50121880700F038
:100B90005DF8124CA068606011498968A1608142CB
:100BA00005D1FFF763FB2078401C207001E0002096
:100BB000207020781421B0FBF1F201FB12002070AC
:100BC00010B90120FFF764FC2078092804D1BDE8A2
:100BD00010400020FFF75CBC10BD000000000020AA
:100BE000100000200EB501210846FFF74FFE00203F
:100BF000ADF80600ADF8020042F21071ADF8041035
:100C00004721ADF800108DF8080069464FF080408C
:100C100000F010F90EBDF8B504460D4601218E070F
:100C2000304600F013F801221146304600F01DF85E
:100C30001C208DF8000001208DF803008DF8014084
:100C40008DF802506846FFF7E3FDF8BDC943018205
:100C50007047002904D0018841F0010101807047EC
:100C6000018821F0010101807047002A03D08289A8
:100C70000A438281704782898A43828170470000DB
:100C800030B5028C22F001020284028C8388048B2E
:100C900024F0700424F003050C882C4322F0020297
:100CA0000D8915434A882A43124DA8420BD0124D94
:100CB000A84208D0114DA84205D0114DA84202D03B
:100CC000104DA8420FD122F008054A892A4322F08C
:100CD00004058A882A4323F4807323F400738D89E2
:100CE0001D43CB892B4383800483C988818602847A
:100CF00030BD0000002C01400034014000400140A4
:100D0000004401400048014070B5028C22F01002FE
:100D10000284028C8388048B24F4E04424F440761B
:100D20000D884FF6FF7404EA0525354322F02002B2
:100D30000E8904EA061616434A8804EA0212324370
:100D4000114EB04202D0114EB04217D122F08002B3
:100D50004E8904EA0616164326F040068A8804EAFD
:100D60000212324323F4806323F400638E8904EA81
:100D700086061E43CB8904EA8303334383800583BD
:100D8000C9880187028470BD002C014000340140F5
:100D900070B5028C22F480720284028C8388848B6A
:100DA00024F0700424F003040D88254322F400721B
:100DB0000E894FF6FF7404EA062616434A8804EAB1
:100DC00002223243114EB04202D0114EB04217D12E
:100DD00022F400664A8904EA0222324322F4806641
:100DE0008A8804EA0222324323F4805323F4005316
:100DF0008E8904EA06161E43CB8904EA03133343A3
:100E000083808583C9888187028470BD002C01405E
:100E1000003401400021018041808180C180018136
:100E200041818181C1817047818670470187704708
:100E30008187704730B502881B4C1C4DA0420DD0F5
:100E4000A8420BD0B0F1804F08D0194B984205D082
:100E5000184B984202D0184B984203D122F07003ED
:100E60004A881A43154B984206D0154B984203D036
:100E700022F44073CA881A4302808A8882850A88CD
:100E80000285A0420AD0A84208D00E4A904205D05E
:100E90000D4A904202D00D4A904201D1097A018652
:100EA0000121818230BD0000002C0140003401404E
:100EB0000004004000080040000C0040001000400A
:100EC000001400400040014000440140004801403F
:100ED000FEE70000FFF7ECFA0020FFF7C9FAFFF782
:100EE00011FD02E00020FFF7D3FAFFF74BFB0028CB
:100EF000F8D10120FFF7CCFA40F2DC544FF44875EA
:100F0000224621462846FFF78FFDFFF7A1FA034B43
:100F10001D805C809C80FFF795F9FCE710000020A5
:100F2000F0F0F0F0F0F0F0F0F0F000004C0F0008FE
:100F30000000002010000000280100085C0F0008DD
:100F4000100000209006000044010008000000008E
:0C0F500000000000000000000000000095
:04000005080000ED02
:00000001FF
